{
  "_format": "hh-sol-artifact-1",
  "contractName": "TestNFT",
  "sourceName": "contracts/Nft.sol",
  "abi": [
    {
      "inputs": [],
      "stateMutability": "nonpayable",
      "type": "constructor"
    },
    {
      "inputs": [
        {
          "internalType": "address",
          "name": "sender",
          "type": "address"
        },
        {
          "internalType": "uint256",
          "name": "tokenId",
          "type": "uint256"
        },
        {
          "internalType": "address",
          "name": "owner",
          "type": "address"
        }
      ],
      "name": "ERC721IncorrectOwner",
      "type": "error"
    },
    {
      "inputs": [
        {
          "internalType": "address",
          "name": "operator",
          "type": "address"
        },
        {
          "internalType": "uint256",
          "name": "tokenId",
          "type": "uint256"
        }
      ],
      "name": "ERC721InsufficientApproval",
      "type": "error"
    },
    {
      "inputs": [
        {
          "internalType": "address",
          "name": "approver",
          "type": "address"
        }
      ],
      "name": "ERC721InvalidApprover",
      "type": "error"
    },
    {
      "inputs": [
        {
          "internalType": "address",
          "name": "operator",
          "type": "address"
        }
      ],
      "name": "ERC721InvalidOperator",
      "type": "error"
    },
    {
      "inputs": [
        {
          "internalType": "address",
          "name": "owner",
          "type": "address"
        }
      ],
      "name": "ERC721InvalidOwner",
      "type": "error"
    },
    {
      "inputs": [
        {
          "internalType": "address",
          "name": "receiver",
          "type": "address"
        }
      ],
      "name": "ERC721InvalidReceiver",
      "type": "error"
    },
    {
      "inputs": [
        {
          "internalType": "address",
          "name": "sender",
          "type": "address"
        }
      ],
      "name": "ERC721InvalidSender",
      "type": "error"
    },
    {
      "inputs": [
        {
          "internalType": "uint256",
          "name": "tokenId",
          "type": "uint256"
        }
      ],
      "name": "ERC721NonexistentToken",
      "type": "error"
    },
    {
      "anonymous": false,
      "inputs": [
        {
          "indexed": true,
          "internalType": "address",
          "name": "owner",
          "type": "address"
        },
        {
          "indexed": true,
          "internalType": "address",
          "name": "approved",
          "type": "address"
        },
        {
          "indexed": true,
          "internalType": "uint256",
          "name": "tokenId",
          "type": "uint256"
        }
      ],
      "name": "Approval",
      "type": "event"
    },
    {
      "anonymous": false,
      "inputs": [
        {
          "indexed": true,
          "internalType": "address",
          "name": "owner",
          "type": "address"
        },
        {
          "indexed": true,
          "internalType": "address",
          "name": "operator",
          "type": "address"
        },
        {
          "indexed": false,
          "internalType": "bool",
          "name": "approved",
          "type": "bool"
        }
      ],
      "name": "ApprovalForAll",
      "type": "event"
    },
    {
      "anonymous": false,
      "inputs": [
        {
          "indexed": false,
          "internalType": "address",
          "name": "recipient",
          "type": "address"
        },
        {
          "indexed": false,
          "internalType": "uint256",
          "name": "tokenId",
          "type": "uint256"
        }
      ],
      "name": "NFTMinted",
      "type": "event"
    },
    {
      "anonymous": false,
      "inputs": [
        {
          "indexed": true,
          "internalType": "address",
          "name": "from",
          "type": "address"
        },
        {
          "indexed": true,
          "internalType": "address",
          "name": "to",
          "type": "address"
        },
        {
          "indexed": true,
          "internalType": "uint256",
          "name": "tokenId",
          "type": "uint256"
        }
      ],
      "name": "Transfer",
      "type": "event"
    },
    {
      "inputs": [
        {
          "internalType": "address",
          "name": "to",
          "type": "address"
        },
        {
          "internalType": "uint256",
          "name": "tokenId",
          "type": "uint256"
        }
      ],
      "name": "approve",
      "outputs": [],
      "stateMutability": "nonpayable",
      "type": "function"
    },
    {
      "inputs": [
        {
          "internalType": "address",
          "name": "account",
          "type": "address"
        }
      ],
      "name": "balanceOf",
      "outputs": [
        {
          "internalType": "uint256",
          "name": "",
          "type": "uint256"
        }
      ],
      "stateMutability": "view",
      "type": "function"
    },
    {
      "inputs": [
        {
          "internalType": "uint256",
          "name": "tokenId",
          "type": "uint256"
        }
      ],
      "name": "burnNFT",
      "outputs": [],
      "stateMutability": "nonpayable",
      "type": "function"
    },
    {
      "inputs": [
        {
          "internalType": "uint256",
          "name": "tokenId",
          "type": "uint256"
        }
      ],
      "name": "getApproved",
      "outputs": [
        {
          "internalType": "address",
          "name": "",
          "type": "address"
        }
      ],
      "stateMutability": "view",
      "type": "function"
    },
    {
      "inputs": [
        {
          "internalType": "address",
          "name": "owner",
          "type": "address"
        },
        {
          "internalType": "address",
          "name": "operator",
          "type": "address"
        }
      ],
      "name": "isApprovedForAll",
      "outputs": [
        {
          "internalType": "bool",
          "name": "",
          "type": "bool"
        }
      ],
      "stateMutability": "view",
      "type": "function"
    },
    {
      "inputs": [
        {
          "internalType": "address",
          "name": "recipient",
          "type": "address"
        }
      ],
      "name": "mintNFT",
      "outputs": [
        {
          "internalType": "uint256",
          "name": "",
          "type": "uint256"
        }
      ],
      "stateMutability": "nonpayable",
      "type": "function"
    },
    {
      "inputs": [],
      "name": "name",
      "outputs": [
        {
          "internalType": "string",
          "name": "",
          "type": "string"
        }
      ],
      "stateMutability": "view",
      "type": "function"
    },
    {
      "inputs": [
        {
          "internalType": "uint256",
          "name": "tokenId",
          "type": "uint256"
        }
      ],
      "name": "ownerOf",
      "outputs": [
        {
          "internalType": "address",
          "name": "",
          "type": "address"
        }
      ],
      "stateMutability": "view",
      "type": "function"
    },
    {
      "inputs": [
        {
          "internalType": "address",
          "name": "from",
          "type": "address"
        },
        {
          "internalType": "address",
          "name": "to",
          "type": "address"
        },
        {
          "internalType": "uint256",
          "name": "tokenId",
          "type": "uint256"
        }
      ],
      "name": "safeTransferFrom",
      "outputs": [],
      "stateMutability": "nonpayable",
      "type": "function"
    },
    {
      "inputs": [
        {
          "internalType": "address",
          "name": "from",
          "type": "address"
        },
        {
          "internalType": "address",
          "name": "to",
          "type": "address"
        },
        {
          "internalType": "uint256",
          "name": "tokenId",
          "type": "uint256"
        },
        {
          "internalType": "bytes",
          "name": "data",
          "type": "bytes"
        }
      ],
      "name": "safeTransferFrom",
      "outputs": [],
      "stateMutability": "nonpayable",
      "type": "function"
    },
    {
      "inputs": [
        {
          "internalType": "address",
          "name": "operator",
          "type": "address"
        },
        {
          "internalType": "bool",
          "name": "approved",
          "type": "bool"
        }
      ],
      "name": "setApprovalForAll",
      "outputs": [],
      "stateMutability": "nonpayable",
      "type": "function"
    },
    {
      "inputs": [
        {
          "internalType": "bytes4",
          "name": "interfaceId",
          "type": "bytes4"
        }
      ],
      "name": "supportsInterface",
      "outputs": [
        {
          "internalType": "bool",
          "name": "",
          "type": "bool"
        }
      ],
      "stateMutability": "view",
      "type": "function"
    },
    {
      "inputs": [],
      "name": "symbol",
      "outputs": [
        {
          "internalType": "string",
          "name": "",
          "type": "string"
        }
      ],
      "stateMutability": "view",
      "type": "function"
    },
    {
      "inputs": [
        {
          "internalType": "uint256",
          "name": "tokenId",
          "type": "uint256"
        }
      ],
      "name": "tokenURI",
      "outputs": [
        {
          "internalType": "string",
          "name": "",
          "type": "string"
        }
      ],
      "stateMutability": "view",
      "type": "function"
    },
    {
      "inputs": [
        {
          "internalType": "address",
          "name": "from",
          "type": "address"
        },
        {
          "internalType": "address",
          "name": "to",
          "type": "address"
        },
        {
          "internalType": "uint256",
          "name": "tokenId",
          "type": "uint256"
        }
      ],
      "name": "transferFrom",
      "outputs": [],
      "stateMutability": "nonpayable",
      "type": "function"
    }
  ],
  "bytecode": "0x608060405260006006553480156200001657600080fd5b506040518060400160405280600981526020017f6469657574734e465400000000000000000000000000000000000000000000008152506040518060400160405280600381526020017f4454530000000000000000000000000000000000000000000000000000000000815250816000908162000094919062000329565b508060019081620000a6919062000329565b50505062000410565b600081519050919050565b7f4e487b7100000000000000000000000000000000000000000000000000000000600052604160045260246000fd5b7f4e487b7100000000000000000000000000000000000000000000000000000000600052602260045260246000fd5b600060028204905060018216806200013157607f821691505b602082108103620001475762000146620000e9565b5b50919050565b60008190508160005260206000209050919050565b60006020601f8301049050919050565b600082821b905092915050565b600060088302620001b17fffffffffffffffffffffffffffffffffffffffffffffffffffffffffffffffff8262000172565b620001bd868362000172565b95508019841693508086168417925050509392505050565b6000819050919050565b6000819050919050565b60006200020a62000204620001fe84620001d5565b620001df565b620001d5565b9050919050565b6000819050919050565b6200022683620001e9565b6200023e620002358262000211565b8484546200017f565b825550505050565b600090565b6200025562000246565b620002628184846200021b565b505050565b5b818110156200028a576200027e6000826200024b565b60018101905062000268565b5050565b601f821115620002d957620002a3816200014d565b620002ae8462000162565b81016020851015620002be578190505b620002d6620002cd8562000162565b83018262000267565b50505b505050565b600082821c905092915050565b6000620002fe60001984600802620002de565b1980831691505092915050565b6000620003198383620002eb565b9150826002028217905092915050565b6200033482620000af565b67ffffffffffffffff81111562000350576200034f620000ba565b5b6200035c825462000118565b620003698282856200028e565b600060209050601f831160018114620003a157600084156200038c578287015190505b6200039885826200030b565b86555062000408565b601f198416620003b1866200014d565b60005b82811015620003db57848901518255600182019150602085019450602081019050620003b4565b86831015620003fb5784890151620003f7601f891682620002eb565b8355505b6001600288020188555050505b505050505050565b611fb480620004206000396000f3fe608060405234801561001057600080fd5b50600436106100f55760003560e01c806354ba0f2711610097578063a22cb46511610066578063a22cb46514610296578063b88d4fde146102b2578063c87b56dd146102ce578063e985e9c5146102fe576100f5565b806354ba0f27146101e85780636352211e1461021857806370a082311461024857806395d89b4114610278576100f5565b8063095ea7b3116100d3578063095ea7b31461017857806323b872dd146101945780632890e0d7146101b057806342842e0e146101cc576100f5565b806301ffc9a7146100fa57806306fdde031461012a578063081812fc14610148575b600080fd5b610114600480360381019061010f919061172f565b61032e565b6040516101219190611777565b60405180910390f35b610132610410565b60405161013f9190611822565b60405180910390f35b610162600480360381019061015d919061187a565b6104a2565b60405161016f91906118e8565b60405180910390f35b610192600480360381019061018d919061192f565b6104be565b005b6101ae60048036038101906101a9919061196f565b6104d4565b005b6101ca60048036038101906101c5919061187a565b6105d6565b005b6101e660048036038101906101e1919061196f565b6105e2565b005b61020260048036038101906101fd91906119c2565b610602565b60405161020f91906119fe565b60405180910390f35b610232600480360381019061022d919061187a565b610671565b60405161023f91906118e8565b60405180910390f35b610262600480360381019061025d91906119c2565b610683565b60405161026f91906119fe565b60405180910390f35b61028061073a565b60405161028d9190611822565b60405180910390f35b6102b060048036038101906102ab9190611a45565b6107cc565b005b6102cc60048036038101906102c79190611bba565b6107e2565b005b6102e860048036038101906102e3919061187a565b6107ff565b6040516102f59190611822565b60405180910390f35b61031860048036038101906103139190611c3d565b610868565b6040516103259190611777565b60405180910390f35b60007f80ac58cd000000000000000000000000000000000000000000000000000000007bffffffffffffffffffffffffffffffffffffffffffffffffffffffff1916827bffffffffffffffffffffffffffffffffffffffffffffffffffffffff191614806103f957507f5b5e139f000000000000000000000000000000000000000000000000000000007bffffffffffffffffffffffffffffffffffffffffffffffffffffffff1916827bffffffffffffffffffffffffffffffffffffffffffffffffffffffff1916145b806104095750610408826108fc565b5b9050919050565b60606000805461041f90611cac565b80601f016020809104026020016040519081016040528092919081815260200182805461044b90611cac565b80156104985780601f1061046d57610100808354040283529160200191610498565b820191906000526020600020905b81548152906001019060200180831161047b57829003601f168201915b5050505050905090565b60006104ad82610966565b506104b7826109ee565b9050919050565b6104d082826104cb610a2b565b610a33565b5050565b600073ffffffffffffffffffffffffffffffffffffffff168273ffffffffffffffffffffffffffffffffffffffff16036105465760006040517f64a0ae9200000000000000000000000000000000000000000000000000000000815260040161053d91906118e8565b60405180910390fd5b600061055a8383610555610a2b565b610a45565b90508373ffffffffffffffffffffffffffffffffffffffff168173ffffffffffffffffffffffffffffffffffffffff16146105d0578382826040517f64283d7b0000000000000000000000000000000000000000000000000000000081526004016105c793929190611cdd565b60405180910390fd5b50505050565b6105df81610c5f565b50565b6105fd838383604051806020016040528060008152506107e2565b505050565b60006001600660008282546106179190611d43565b925050819055506000600654905061062f8382610ce5565b7f4cc0a9c4a99ddc700de1af2c9f916a7cbfdb71f14801ccff94061ad1ef8a80408382604051610660929190611d77565b60405180910390a180915050919050565b600061067c82610966565b9050919050565b60008173ffffffffffffffffffffffffffffffffffffffff163373ffffffffffffffffffffffffffffffffffffffff16146106f3576040517f08c379a00000000000000000000000000000000000000000000000000000000081526004016106ea90611dec565b60405180910390fd5b600760008373ffffffffffffffffffffffffffffffffffffffff1673ffffffffffffffffffffffffffffffffffffffff168152602001908152602001600020549050919050565b60606001805461074990611cac565b80601f016020809104026020016040519081016040528092919081815260200182805461077590611cac565b80156107c25780601f10610797576101008083540402835291602001916107c2565b820191906000526020600020905b8154815290600101906020018083116107a557829003601f168201915b5050505050905090565b6107de6107d7610a2b565b8383610dde565b5050565b6107ed8484846104d4565b6107f984848484610f4d565b50505050565b606061080a82610966565b506000610815611104565b905060008151116108355760405180602001604052806000815250610860565b8061083f8461111b565b604051602001610850929190611e48565b6040516020818303038152906040525b915050919050565b6000600560008473ffffffffffffffffffffffffffffffffffffffff1673ffffffffffffffffffffffffffffffffffffffff16815260200190815260200160002060008373ffffffffffffffffffffffffffffffffffffffff1673ffffffffffffffffffffffffffffffffffffffff16815260200190815260200160002060009054906101000a900460ff16905092915050565b60007f01ffc9a7000000000000000000000000000000000000000000000000000000007bffffffffffffffffffffffffffffffffffffffffffffffffffffffff1916827bffffffffffffffffffffffffffffffffffffffffffffffffffffffff1916149050919050565b600080610972836111e9565b9050600073ffffffffffffffffffffffffffffffffffffffff168173ffffffffffffffffffffffffffffffffffffffff16036109e557826040517f7e2732890000000000000000000000000000000000000000000000000000000081526004016109dc91906119fe565b60405180910390fd5b80915050919050565b60006004600083815260200190815260200160002060009054906101000a900473ffffffffffffffffffffffffffffffffffffffff169050919050565b600033905090565b610a408383836001611226565b505050565b600080610a51846111e9565b9050600073ffffffffffffffffffffffffffffffffffffffff168373ffffffffffffffffffffffffffffffffffffffff1614610a9357610a928184866113eb565b5b600073ffffffffffffffffffffffffffffffffffffffff168173ffffffffffffffffffffffffffffffffffffffff1614610b2457610ad5600085600080611226565b6001600360008373ffffffffffffffffffffffffffffffffffffffff1673ffffffffffffffffffffffffffffffffffffffff168152602001908152602001600020600082825403925050819055505b600073ffffffffffffffffffffffffffffffffffffffff168573ffffffffffffffffffffffffffffffffffffffff1614610ba7576001600360008773ffffffffffffffffffffffffffffffffffffffff1673ffffffffffffffffffffffffffffffffffffffff168152602001908152602001600020600082825401925050819055505b846002600086815260200190815260200160002060006101000a81548173ffffffffffffffffffffffffffffffffffffffff021916908373ffffffffffffffffffffffffffffffffffffffff160217905550838573ffffffffffffffffffffffffffffffffffffffff168273ffffffffffffffffffffffffffffffffffffffff167fddf252ad1be2c89b69c2b068fc378daa952ba7f163c4a11628f55a4df523b3ef60405160405180910390a4809150509392505050565b6000610c6e6000836000610a45565b9050600073ffffffffffffffffffffffffffffffffffffffff168173ffffffffffffffffffffffffffffffffffffffff1603610ce157816040517f7e273289000000000000000000000000000000000000000000000000000000008152600401610cd891906119fe565b60405180910390fd5b5050565b600073ffffffffffffffffffffffffffffffffffffffff168273ffffffffffffffffffffffffffffffffffffffff1603610d575760006040517f64a0ae92000000000000000000000000000000000000000000000000000000008152600401610d4e91906118e8565b60405180910390fd5b6000610d6583836000610a45565b9050600073ffffffffffffffffffffffffffffffffffffffff168173ffffffffffffffffffffffffffffffffffffffff1614610dd95760006040517f73c6ac6e000000000000000000000000000000000000000000000000000000008152600401610dd091906118e8565b60405180910390fd5b505050565b600073ffffffffffffffffffffffffffffffffffffffff168273ffffffffffffffffffffffffffffffffffffffff1603610e4f57816040517f5b08ba18000000000000000000000000000000000000000000000000000000008152600401610e4691906118e8565b60405180910390fd5b80600560008573ffffffffffffffffffffffffffffffffffffffff1673ffffffffffffffffffffffffffffffffffffffff16815260200190815260200160002060008473ffffffffffffffffffffffffffffffffffffffff1673ffffffffffffffffffffffffffffffffffffffff16815260200190815260200160002060006101000a81548160ff0219169083151502179055508173ffffffffffffffffffffffffffffffffffffffff168373ffffffffffffffffffffffffffffffffffffffff167f17307eab39ab6107e8899845ad3d59bd9653f200f220920489ca2b5937696c3183604051610f409190611777565b60405180910390a3505050565b60008373ffffffffffffffffffffffffffffffffffffffff163b11156110fe578273ffffffffffffffffffffffffffffffffffffffff1663150b7a02610f91610a2b565b8685856040518563ffffffff1660e01b8152600401610fb39493929190611ec1565b6020604051808303816000875af1925050508015610fef57506040513d601f19601f82011682018060405250810190610fec9190611f22565b60015b611073573d806000811461101f576040519150601f19603f3d011682016040523d82523d6000602084013e611024565b606091505b50600081510361106b57836040517f64a0ae9200000000000000000000000000000000000000000000000000000000815260040161106291906118e8565b60405180910390fd5b805181602001fd5b63150b7a0260e01b7bffffffffffffffffffffffffffffffffffffffffffffffffffffffff1916817bffffffffffffffffffffffffffffffffffffffffffffffffffffffff1916146110fc57836040517f64a0ae920000000000000000000000000000000000000000000000000000000081526004016110f391906118e8565b60405180910390fd5b505b50505050565b606060405180602001604052806000815250905090565b60606000600161112a846114af565b01905060008167ffffffffffffffff81111561114957611148611a8f565b5b6040519080825280601f01601f19166020018201604052801561117b5781602001600182028036833780820191505090505b509050600082602001820190505b6001156111de578080600190039150507f3031323334353637383961626364656600000000000000000000000000000000600a86061a8153600a85816111d2576111d1611f4f565b5b04945060008503611189575b819350505050919050565b60006002600083815260200190815260200160002060009054906101000a900473ffffffffffffffffffffffffffffffffffffffff169050919050565b808061125f5750600073ffffffffffffffffffffffffffffffffffffffff168273ffffffffffffffffffffffffffffffffffffffff1614155b1561139357600061126f84610966565b9050600073ffffffffffffffffffffffffffffffffffffffff168373ffffffffffffffffffffffffffffffffffffffff16141580156112da57508273ffffffffffffffffffffffffffffffffffffffff168173ffffffffffffffffffffffffffffffffffffffff1614155b80156112ed57506112eb8184610868565b155b1561132f57826040517fa9fbf51f00000000000000000000000000000000000000000000000000000000815260040161132691906118e8565b60405180910390fd5b811561139157838573ffffffffffffffffffffffffffffffffffffffff168273ffffffffffffffffffffffffffffffffffffffff167f8c5be1e5ebec7d5bd14f71427d1e84f3dd0314c0f7b2291e5b200ac8c7c3b92560405160405180910390a45b505b836004600085815260200190815260200160002060006101000a81548173ffffffffffffffffffffffffffffffffffffffff021916908373ffffffffffffffffffffffffffffffffffffffff16021790555050505050565b6113f6838383611602565b6114aa57600073ffffffffffffffffffffffffffffffffffffffff168373ffffffffffffffffffffffffffffffffffffffff160361146b57806040517f7e27328900000000000000000000000000000000000000000000000000000000815260040161146291906119fe565b60405180910390fd5b81816040517f177e802f0000000000000000000000000000000000000000000000000000000081526004016114a1929190611d77565b60405180910390fd5b505050565b600080600090507a184f03e93ff9f4daa797ed6e38ed64bf6a1f010000000000000000831061150d577a184f03e93ff9f4daa797ed6e38ed64bf6a1f010000000000000000838161150357611502611f4f565b5b0492506040810190505b6d04ee2d6d415b85acef8100000000831061154a576d04ee2d6d415b85acef810000000083816115405761153f611f4f565b5b0492506020810190505b662386f26fc10000831061157957662386f26fc10000838161156f5761156e611f4f565b5b0492506010810190505b6305f5e10083106115a2576305f5e100838161159857611597611f4f565b5b0492506008810190505b61271083106115c75761271083816115bd576115bc611f4f565b5b0492506004810190505b606483106115ea57606483816115e0576115df611f4f565b5b0492506002810190505b600a83106115f9576001810190505b80915050919050565b60008073ffffffffffffffffffffffffffffffffffffffff168373ffffffffffffffffffffffffffffffffffffffff16141580156116ba57508273ffffffffffffffffffffffffffffffffffffffff168473ffffffffffffffffffffffffffffffffffffffff16148061167b575061167a8484610868565b5b806116b957508273ffffffffffffffffffffffffffffffffffffffff166116a1836109ee565b73ffffffffffffffffffffffffffffffffffffffff16145b5b90509392505050565b6000604051905090565b600080fd5b600080fd5b60007fffffffff0000000000000000000000000000000000000000000000000000000082169050919050565b61170c816116d7565b811461171757600080fd5b50565b60008135905061172981611703565b92915050565b600060208284031215611745576117446116cd565b5b60006117538482850161171a565b91505092915050565b60008115159050919050565b6117718161175c565b82525050565b600060208201905061178c6000830184611768565b92915050565b600081519050919050565b600082825260208201905092915050565b60005b838110156117cc5780820151818401526020810190506117b1565b60008484015250505050565b6000601f19601f8301169050919050565b60006117f482611792565b6117fe818561179d565b935061180e8185602086016117ae565b611817816117d8565b840191505092915050565b6000602082019050818103600083015261183c81846117e9565b905092915050565b6000819050919050565b61185781611844565b811461186257600080fd5b50565b6000813590506118748161184e565b92915050565b6000602082840312156118905761188f6116cd565b5b600061189e84828501611865565b91505092915050565b600073ffffffffffffffffffffffffffffffffffffffff82169050919050565b60006118d2826118a7565b9050919050565b6118e2816118c7565b82525050565b60006020820190506118fd60008301846118d9565b92915050565b61190c816118c7565b811461191757600080fd5b50565b60008135905061192981611903565b92915050565b60008060408385031215611946576119456116cd565b5b60006119548582860161191a565b925050602061196585828601611865565b9150509250929050565b600080600060608486031215611988576119876116cd565b5b60006119968682870161191a565b93505060206119a78682870161191a565b92505060406119b886828701611865565b9150509250925092565b6000602082840312156119d8576119d76116cd565b5b60006119e68482850161191a565b91505092915050565b6119f881611844565b82525050565b6000602082019050611a1360008301846119ef565b92915050565b611a228161175c565b8114611a2d57600080fd5b50565b600081359050611a3f81611a19565b92915050565b60008060408385031215611a5c57611a5b6116cd565b5b6000611a6a8582860161191a565b9250506020611a7b85828601611a30565b9150509250929050565b600080fd5b600080fd5b7f4e487b7100000000000000000000000000000000000000000000000000000000600052604160045260246000fd5b611ac7826117d8565b810181811067ffffffffffffffff82111715611ae657611ae5611a8f565b5b80604052505050565b6000611af96116c3565b9050611b058282611abe565b919050565b600067ffffffffffffffff821115611b2557611b24611a8f565b5b611b2e826117d8565b9050602081019050919050565b82818337600083830152505050565b6000611b5d611b5884611b0a565b611aef565b905082815260208101848484011115611b7957611b78611a8a565b5b611b84848285611b3b565b509392505050565b600082601f830112611ba157611ba0611a85565b5b8135611bb1848260208601611b4a565b91505092915050565b60008060008060808587031215611bd457611bd36116cd565b5b6000611be28782880161191a565b9450506020611bf38782880161191a565b9350506040611c0487828801611865565b925050606085013567ffffffffffffffff811115611c2557611c246116d2565b5b611c3187828801611b8c565b91505092959194509250565b60008060408385031215611c5457611c536116cd565b5b6000611c628582860161191a565b9250506020611c738582860161191a565b9150509250929050565b7f4e487b7100000000000000000000000000000000000000000000000000000000600052602260045260246000fd5b60006002820490506001821680611cc457607f821691505b602082108103611cd757611cd6611c7d565b5b50919050565b6000606082019050611cf260008301866118d9565b611cff60208301856119ef565b611d0c60408301846118d9565b949350505050565b7f4e487b7100000000000000000000000000000000000000000000000000000000600052601160045260246000fd5b6000611d4e82611844565b9150611d5983611844565b9250828201905080821115611d7157611d70611d14565b5b92915050565b6000604082019050611d8c60008301856118d9565b611d9960208301846119ef565b9392505050565b7f4552433732313a206d73672e73656e64657220213d206163636f756e74000000600082015250565b6000611dd6601d8361179d565b9150611de182611da0565b602082019050919050565b60006020820190508181036000830152611e0581611dc9565b9050919050565b600081905092915050565b6000611e2282611792565b611e2c8185611e0c565b9350611e3c8185602086016117ae565b80840191505092915050565b6000611e548285611e17565b9150611e608284611e17565b91508190509392505050565b600081519050919050565b600082825260208201905092915050565b6000611e9382611e6c565b611e9d8185611e77565b9350611ead8185602086016117ae565b611eb6816117d8565b840191505092915050565b6000608082019050611ed660008301876118d9565b611ee360208301866118d9565b611ef060408301856119ef565b8181036060830152611f028184611e88565b905095945050505050565b600081519050611f1c81611703565b92915050565b600060208284031215611f3857611f376116cd565b5b6000611f4684828501611f0d565b91505092915050565b7f4e487b7100000000000000000000000000000000000000000000000000000000600052601260045260246000fdfea264697066735822122079b6e9b5b8ee0442a9deffb22306d9febafe6db2ecb88df9f1233a80bbe547df64736f6c63430008140033",
  "linkReferences": {},
  "deployedLinkReferences": {}
}